:020000040800F2
:1000000000020020210100086102000861020008CE
:100010006102000861020008610200086102000834
:100020006102000861020008610200088102000804
:100030006102000861020008610200086103000813
:100040006102000861020008610200086102000804
:1000500061020008610200086102000861020008F4
:1000600061020008610200086102000861020008E4
:1000700061020008610200086102000861020008D4
:1000800061020008610200086102000861020008C4
:1000900061020008610200086102000861020008B4
:1000A00061020008610200086102000861020008A4
:1000B0006102000861020008610200086102000894
:1000C0006102000861020008610200086102000884
:1000D0006102000861020008610200086102000874
:0C00E000610200086102000861020008D3
:1000F00008B500F0C5FB00F07BF9FEE7000000004A
:10010000704700BF00000000000000000000000079
:10011000FEE700BF0000000000000000000000003B
:1001200072B640F20040C2F2000080F30988022358
:1001300083F31488BFF36F8F40F2000340F2002274
:10014000C2F20003C2F2000293420BD2D94311441F
:1001500021F0030119444FF05532043B43F8042FBA
:100160008B42FBD140F20023C2F2000383420CD247
:1001700037491A1D891A21F0030119444FF05532ED
:10018000043B43F8042F8B42FBD100F0A9FC40F262
:10019000004140F20043C2F20001C2F20003994262
:1001A0000ED2CC431C4424F0030440F670300434D7
:1001B000C0F600000023C258CA500433A342FAD14B
:1001C00040F2004340F26452C2F20003C2F2000265
:1001D00093420AD2D943114421F003011944002269
:1001E000043B43F8042F8B42FBD1FFF789FF40F219
:1001F000EC0540F2EC03C0F60005C0F600039D429A
:100200000BD2EE431E44B6080136043D00240134EF
:1002100055F8043F9847B442F9D1FFF769FF40F21F
:10022000EC0540F2EC03C0F60005C0F600039D4269
:100230000BD2EE431E44B6080136043D00240134BF
:1002400055F8043F9847B442F9D1FFF761FF00BF6A
:100250000304002000000000000000000000000077
:10026000FEE700BF000000000000000000000000EA
:1002700000F0FEF900DF00BF0000000000000000F9
:10028000EFF30983203383F30988002383F3118874
:10029000704700BF000000000000000000000000E8
:1002A00008B54FF440724FF46D43CEF20003C0F234
:1002B000FA52002199600720DA60102100F070F8EE
:1002C0000A20202100F06CF8BDE808400B208021B6
:1002D00000F066B800000000000000000000000010
:1002E000202383F311884FF46D43CEF200035B6843
:1002F00013F400631FD0EFF30982A2F1200383F30C
:10030000098840F21853C2F200034FF080709969D7
:1003100042F8040CC87F88B118688B6881689942DC
:1003200094BF0023012393B140F27123C0F6000370
:1003300042F8083C704783F31188704718688B684F
:100340008168994234BF00230123002BECD140F295
:100350007423C0F6000342F8083C70470000000018
:1003600008B5202383F3118800F07AF8002383F383
:100370001188BDE80840FFF7B3BF00BF00000000D0
:100380002DE9F04FC1F80CD0D0F80CD0BDE8F08FBB
:10039000002383F311882846A04700F019FA70471C
:1003A00000F00303DB00FF229A40994020F0030095
:1003B00000F1604000F56D40836923EA02030B43BE
:1003C0008361704700000000000000000000000092
:1003D00040F21853C2F200039A6940F60033C0F6A7
:1003E00000039361FEE700BF000000000000000072
:1003F00010B582B0FFF754FF00F07AF800F068F80B
:1004000000F0F6F900F02CFA40F200404021C2F270
:10041000000000F03DF940F21853C2F2000301223F
:1004200098610277002383F3118862B640F2185373
:10043000C2F200039C6940F61032C0F600020021AF
:1004400040F2484040F2D133A261C0F6000300916F
:100450000122C021C2F2000000F04AF902B010BD32
:1004600070B540F21853C2F200039B69DA7F0AB1FB
:10047000013ADA771A6A40F208510132C2F20001F9
:100480001A62CB680A6801338A42CB6019D0966839
:10049000013E9660AEB90D461068D4680860D6601B
:1004A0000023416083F311881069A047202383F360
:1004B00011882A6840F208519368C2F20001002BAB
:1004C000EAD070BD00000000000000000000000045
:1004D00040F20853C2F200034FF0FF3100225B608C
:1004E0001B609960DA6070470000000000000000A7
:1004F00040F21853C2F2000300225B601B605B6194
:100500001B619A60704700BF0000000000000000FF
:10051000002240F21853816810B4C2F2000304466E
:1005200002771B689A688A42FBD25A682046236089
:1005300062605C6014605DF8044B7047000000006E
:1005400040F21853C2F2000370B41A689969146833
:10055000142601250877CE77636015771C60104656
:1005600070BC9A61FFF70CBF0000000000000000A3
:10057000F0B440F21857C2F20007D7F818C08568E7
:10058000DCF808400646A54241620DD800223B46F1
:1005900002771B689A689542FBD95A68336072608B
:1005A0005E601660F0BC704700238CF81C303B4640
:1005B0001B689A689442FBD95A680124CCF8003031
:1005C000CCF80420C3F804C0C2F800C03477304629
:1005D000BE616146F0BCFFF7D3BE00BF0000000063
:1005E00040F21852C2F200021068F0B40368956934
:1005F000012714260021AC6813605A600777034670
:100600009061EE77297700E01B689A68A242FBD2DE
:100610005A6829462B606A605D601560F0BCFFF780
:10062000AFBE00BF0000000000000000000000009E
:1006300040F21852C2F20002106870B40368956963
:1006400001260021AC6813605A600677034690616A
:10065000297700E01B689A68A242FBD85A682946AD
:100660002B606A605D60156070BCFFF789BE00BFDB
:1006700040F21853C2F200039B69DB7F0BB1FFF716
:10068000D7BFFFF7ADBF00BF0000000000000000B3
:100690002DE9F00340F21852C2F20002556900241D
:1006A00000F12C064FF002094FF0140800F1280762
:1006B0004FF0010C45610261816080F81C9080F868
:1006C0001F804477C4638463046284610164506161
:1006D00080F81EC0286187620663C662BDE8F00329
:1006E000704700BF00000000000000000000000094
:1006F0002DE9F0479E460446202383F3118840F2FB
:100700001856A1F124031844C2F20006776940F29A
:100710009131E06044F803E0089B002504F12C0EC1
:1007200004F1280CC0F600014FF0020A4FF0140942
:100730004FF0010843600162A26026616761226494
:1007400084F81CA084F81F9084F81E80657774617B
:10075000E563A5632562A56120463C612946C4F88E
:1007600028C0C4F830E0C4F82CE0FFF701FF2B46A6
:1007700083F311882046BDE8F08700BF0000000029
:1007800038B540F21853C2F200039C69254655F86B
:10079000283F6062AB4207D01A681846A262FFF792
:1007A000B7FEA36AAB42F7D1637F9B0704D12269EE
:1007B00063691A61226953610E20BDE83840FFF772
:1007C000BFBE00BF000000000000000000000000ED
:1007D000202383F31188FFF7D3BF00BF0000000080
:1007E0000023406000608360704700BF000000008D
:1007F00041F200010848C2F2000140F2345240F2D6
:10080000385321F00701C2F2000220F00700C2F2C3
:1008100000031160186070476B05002000000000A5
:10082000202383F3118840F2385340F23452C2F24D
:100830000003C2F2000219681268073020F00700B6
:10084000521A90429BBF40181860002008460023AF
:1008500083F31188704700BF000000000000000013
:1008600040F24053C2F2000340F621020021C0F6DC
:10087000000203F110001A609960D960FFF7B0BF61
:1008800008B500F05DF800F033F840F63030C0F6FF
:10089000000000F0E5F8BDE8084000F029B900BF0D
:1008A0004FF48053CEF200035B688360704700BF53
:1008B0004FF48053CEF2000340F260525B688168CF
:1008C000C2F2000210B414685B1AC2681B1B934288
:1008D000836088BFC36003D80269934238BF036155
:1008E0005DF8044B704700BF0000000000000000EE
:1008F00010B540F2605486B0C2F2000400224FF0FE
:10090000FF314FF48053226004920591CEF2000330
:10091000596840F6A10240F6B103C0F60002C0F6E5
:10092000000301A8029303910192FFF7C1FF039B0B
:10093000236006B010BD00BF0000000000000000F2
:100940004FF48053F0B4C4F2020300214FF0FF349F
:100950004EF210021869CEF200021C6145F6BF5635
:10096000196107254EF6F050DF68CEF20000DC601A
:10097000D960566091601560C2684FF4805142F0B2
:100980008072C260CEF2000108684FF4E04240F08D
:1009900001000860D969C4F2000241F08051D961B8
:1009A000D969F0BC41F00061D961136843F48073E8
:1009B000136070470000000000000000000000000D
:1009C0004FF48053C4F202031A68194642F0010240
:1009D0001A600A684FF480539207C4F20203F8D5F4
:1009E0001968002201F0F901196019465A604A6835
:1009F0004FF4805312F00C0FC4F20203F7D11A68BF
:100A0000194642F480321A600A684FF4805390030A
:100A1000C4F20203F8D55A68194642F4A0225A607B
:100A20001A6842F080721A600A684FF4805392018B
:100A3000C4F20203F8D54FF40052C4F202021021AE
:100A40004FF4A0205860116059681A4641F0020125
:100A50005960536803F00C03082BFAD1704700BFAC
:100A60004FF48053C4F202039A6910B442F07D023D
:100A70009A6103684FF40062C4F20102D360816896
:100A80004FF4406351604168C4F201031160C268D1
:100A90004FF48051DA604269C4F201015A6004697E
:100AA0004FF4A0521C608369C4F20102CB60046A57
:100AB0004FF4C0534C60C469C4F201030C60416A36
:100AC0005DF8044BD160C16A5160816A1160026BAC
:100AD000DA60826B5A60426B1A6070470000000057
:100AE000FFF76EBF000000000000000000000000E3
:100AF0000023C4F201035A6842F080625A607047D2
:100B000069646C6500000000000000000000000047
:100B10006D61696E00168211040448080C101418E7
:100B2000001C1D1E1F20000000000000000000002F
:100B3000FFFFFFFF8888888888888888FFFFFFFF7D
:100B40008888888888888888FFFFFFFF8888888849
:100B500088888888FFFFFFFF888888888888888839
:0C0B6000FFFFFFFF88888888888888884D
:0400000508000121CD
:00000001FF
