:020000040800F2
:1000000000020020110200085103000851030008FB
:100010005103000851030008510300085103000870
:100020005103000851030008510300087103000840
:10003000510300085103000851030008510400084F
:100040005103000851030008510300085103000840
:100050005103000851030008510300085103000830
:100060005103000851030008510300085103000820
:100070005103000851030008510300085103000810
:100080005103000851030008510300085103000800
:1000900051030008510300085103000851030008F0
:1000A00051030008510300085103000851030008E0
:1000B00051030008510300085103000851030008D0
:1000C00051030008510300085103000851030008C0
:1000D00051030008311600085103000851030008BD
:0C00E00051030008510300085103000800
:1000F00010B582B001F07CF800F01AFA4FF40060FD
:10010000C4F201004FF40071102201F049FA4FF4DB
:1001100000600222C4F201004FF4806101F040FA55
:1001200040F28450C2F20000002101F0E9F801F031
:100130008FFD4FF48050C4F201000121062201F02E
:100140002FFA4FF48050C4F201000221062201F080
:1001500027FA4FF48050C4F201000421062201F076
:100160001FFA4FF48050C4F201000821062201F06A
:1001700017FA002440F2587041F67173C0F600037C
:10018000F02140220094C2F2000000F029FC4FF45C
:100190000060C4F201004FF48071062201F000FA01
:1001A00040F2686041F631730094C2F20000C0F67C
:1001B0000003F021402200F013FC44B1237F0E2BFA
:1001C00010D04FF4FA7000F053FC002CF6D142F23C
:1001D0002040C0F600004FF4D871402201F058FDD5
:1001E0000446EEE7204600F083FC0024E9E700BF68
:1001F000704700BF00000000000000000000000089
:10020000FEE700BF0000000000000000000000004A
:1002100072B640F20040C2F2000080F30988022367
:1002200083F31488BFF36F8F40F2000340F2002283
:10023000C2F20003C2F2000293420BD2D94311442E
:1002400021F0030119444FF05532043B43F8042FC9
:100250008B42FBD140F20023C2F2000383420CD256
:1002600037491A1D891A21F0030119444FF05532FC
:10027000043B43F8042F8B42FBD101F0B9FA40F262
:10028000004140F22043C2F20001C2F20003994251
:100290000ED2CC431C4424F0030442F288500434B0
:1002A000C0F600000023C258CA500433A342FAD15A
:1002B00040F2204340F64802C2F20003C2F20002BC
:1002C00093420AD2D943114421F003011944002278
:1002D000043B43F8042F8B42FBD1FFF789FF40F228
:1002E000EC0540F2EC03C0F60005C0F600039D42A9
:1002F0000BD2EE431E44B6080136043D00240134FF
:1003000055F8043F9847B442F9D1FFF7F1FE40F2A7
:10031000EC0540F2EC03C0F60005C0F600039D4278
:100320000BD2EE431E44B6080136043D00240134CE
:1003300055F8043F9847B442F9D1FFF761FF00BF79
:100340000304002000000000000000000000000086
:10035000FEE700BF000000000000000000000000F9
:1003600000F0BEFA00DF00BF000000000000000047
:10037000EFF30983203383F30988002383F3118883
:10038000704700BF000000000000000000000000F7
:1003900008B54FF440724FF46D43CEF20003C0F243
:1003A000FA52002199600720DA60102100F098F8D5
:1003B0000A20202100F094F8BDE808400B2080219D
:1003C00000F08EB8000000000000000000000000F7
:1003D000202383F311884FF46D43CEF200035B6852
:1003E00013F400631FD0EFF30982A2F1200383F31B
:1003F000098840F23853C2F200034FF080709969C7
:1004000042F8040CC87F88B118688B6881689942EB
:1004100094BF0023012393B140F26133C0F600037F
:1004200042F8083C704783F31188704718688B685E
:100430008168994234BF00230123002BECD140F2A4
:100440006433C0F6000342F8083C70470000000027
:1004500008B5202383F3118800F0A2F8002383F36A
:100460001188BDE80840FFF7B3BF00BF00000000DF
:100470002DE9F04FC1F80CD0D0F80CD0BDE8F08FCA
:10048000002383F311882846A04700F029FB70471A
:1004900000F0030330B4DB00FF259D4099400122AA
:1004A00000F01F039A4020F0030404F1604404F5B7
:1004B0006144D4F800334009800023EA050300F1C9
:1004C000604000F561400B43C4F80033C0F8802160
:1004D00030BC0260704700BF000000000000000058
:1004E00000F00303DB00FF229A40994020F0030054
:1004F00000F1604000F56D40836923EA02030B437D
:100500008361704700000000000000000000000050
:1005100040F23853C2F200039A6942F24013C0F627
:1005200000039361FEE700BF000000000000000030
:1005300010B582B0FFF72CFF00F0EAF800F068F881
:1005400000F066FD00F09CFD40F220404021C2F228
:10055000000000F0D5F940F23853C2F20003012246
:1005600098610277002383F3118862B640F2385312
:10057000C2F200039C6942F25012C0F60002002150
:1005800040F2684040F21153A261C0F600030091AE
:100590000122C021C2F2000000F022FA02B010BD18
:1005A00070B540F23853C2F200039B69DA7F0AB19A
:1005B000013ADA771A6A40F228510132C2F2000198
:1005C0001A62CB680A6801338A42CB6019D09668F8
:1005D000013E9660AEB90D461068D4680860D660DA
:1005E0000023416083F311881069A047202383F31F
:1005F00011882A6840F228519368C2F20001002B4A
:10060000EAD070BD00000000000000000000000003
:1006100040F22853C2F200034FF0FF3100225B602A
:100620001B609960DA607047000000000000000065
:1006300070B440F22856C2F200063468A56803611F
:10064000A942C26004D92468491BA5688D42FAD327
:100650006368B442046043606060186081601EBFDC
:10066000A368C1EB0301A16070BC704700000000EB
:10067000036840F22852C2F2000293421FBF9968F9
:10068000826852189A6042680021136003685A60B9
:10069000C160704700000000000000000000000082
:1006A00010B4202383F31188037F0D2B11D8DFE8CA
:1006B00003F029101007100B101010101010100B61
:1006C000436A9A6801329A6090E80C001A600268E6
:1006D00053604FF0FF34002340F238528168446287
:1006E0000377C2F20002126893688B42FBD2516812
:1006F0000023026041605060086083F311885DF858
:10070000044B7047002383F311885DF8044B704756
:1007100040F23853C2F2000300225B601B605B6151
:100720001B619A60704700BF0000000000000000DD
:10073000002240F23853816810B4C2F2000304462C
:1007400002771B689A688A42FBD25A682046236067
:1007500062605C6014605DF8044B7047000000004C
:1007600040F23853C2F2000370B41A6899691468F1
:10077000142601250877CE77636015771C60104634
:1007800070BC9A61FFF774BE00000000000000001A
:1007900030B54B1C87B0054617D040F23854C2F232
:1007A000000440F2A162A36901A8C0F60002FFF7AD
:1007B0003FFF2846FFF7D4FF049B13B101A8FFF7C2
:1007C00057FFA369586A07B030BDFFF7C9FF40F271
:1007D0003854C2F20004A369586A07B030BD00BFA4
:1007E000F0B440F23857C2F20007D7F818C0856855
:1007F000DCF808400646A54241620DD800223B467F
:1008000002771B689A689542FBD95A683360726018
:100810005E601660F0BC704700238CF81C303B46CD
:100820001B689A689442FBD95A680124CCF80030BE
:10083000CCF80420C3F804C0C2F800C034773046B6
:10084000BE616146F0BCFFF713BE00BF00000000B0
:1008500040F23852C2F200021068F0B403689569A1
:10086000012714260021AC6813605A6007770346FD
:100870009061EE77297700E01B689A68A242FBD26C
:100880005A6829462B606A605D601560F0BCFFF70E
:10089000EFBD00BF000000000000000000000000ED
:1008A00040F23852C2F20002106870B403689569D1
:1008B00001260021AC6813605A60067703469061F8
:1008C000297700E01B689A68A242FBD85A6829463B
:1008D0002B606A605D60156070BCFFF7C9BD00BF2A
:1008E00040F23853C2F200039B69DB7F0BB1FFF784
:1008F000D7BFFFF7ADBF00BF000000000000000041
:100900002DE9F00340F23852C2F20002556900248A
:1009100000F12C064FF002094FF0140800F12807EF
:100920004FF0010C45610261816080F81C9080F8F5
:100930001F804477C46384630462846101645061EE
:1009400080F81EC0286187620663C662BDE8F003B6
:10095000704700BF00000000000000000000000021
:100960002DE9F00F40F23855C2F20005A1F1240C38
:10097000696982B001910A9900EB0C07C76040F2E7
:10098000814640F80C3079600199002300F12C0B6E
:10099000C0F600064FF0020A4FF014094FF00108AC
:1009A00000F1280C3E62826005614161026480F8BA
:1009B0001CA080F81F9080F81E8043776861C36395
:1009C0008363036283610861C0F828C0C0F830B057
:1009D000C0F82CB002B0BDE8F00F70470000000076
:1009E0002DE9F0479E460446202383F3118840F208
:1009F0003856A1F124031844C2F20006776940F288
:100A00008141E06044F803E0089B002504F12C0ECE
:100A100004F1280CC0F600014FF0020A4FF014094F
:100A20004FF0010843600162A260266167612264A1
:100A300084F81CA084F81F9084F81E806577746188
:100A4000E563A5632562A56120463C612946C4F89B
:100A500028C0C4F830E0C4F82CE0FFF7C1FE2B46F4
:100A600083F311882046BDE8F08700BF0000000036
:100A700008B50146202383F311880620FFF788FE7E
:100A8000002383F3118808BD00000000000000006F
:100A900038B540F23853C2F200039C69254655F838
:100AA000283F6062AB4207D01A681846A262FFF77F
:100AB0003FFEA36AAB42F7D1637F9B0704D1226953
:100AC00063691A61226953610E20BDE83840FFF75F
:100AD00047BE00BF00000000000000000000000052
:100AE000202383F31188FFF7D3BF00BF000000006D
:100AF0000146202383F31188827F0023013AD2B27A
:100B0000827783F3118812B9037F0E2B00D07047D0
:100B1000437F03F00303012B02D0022B07D0704761
:100B2000026943691A610A69536100F001BB0269F5
:100B30004369406C1A610A69536100F049BB00BF08
:100B400070B582B016461C460D4600F0A9FA98B161
:100B5000202383F31188069B2946009332462346BF
:100B6000FFF7FEFE0123437700210446FFF738FE1E
:100B7000002383F31188204602B070BD00000000FE
:100B80000023406000608360704700BF00000000E9
:100B9000F8B5826840F23853C2F2000305469C69FA
:100BA000002A54D0A1689368994206D9137F9160B6
:100BB000042B33D0052B1DD09BB12B4603E0996845
:100BC000A268914202D31B689D42F8D15A68236003
:100BD00062605C60146065620420BDE8F840FFF765
:100BE000BFBD92E80A001960104612685360FFF713
:100BF0009FFDE2E713685068566A03601768334642
:100C0000786002E09868884202D31B689E42F9D15E
:100C10005968136051605A600A60CEE713685068E3
:100C2000566A036017683346786002E09868884225
:100C300002D31B689E42F9D15968136051605A6013
:100C40000A60B268A16893688B42AFD3B5E7E36BE3
:100C50008460C360E063F8BD000000000000000095
:100C600008B5202383F31188FFF792FF002383F355
:100C7000118808BD00000000000000000000000016
:100C800038B540F23853C2F200039869202383F349
:100C90001188C46B2568E368A542C3631CD0016C4E
:100CA0004BB11A689A4203D09268914238BF1146FC
:100CB000DB68002BF5D12B68EA6B81602360284646
:100CC0005C600021A560E260EC63FFF789FD002312
:100CD00083F31188204638BD0023A360002383F3EB
:100CE0001188204638BD00BF000000000000000051
:100CF00008B5826B037F1143082B81630BD0092B4E
:100D000000D008BD436A19408B42FAD1FFF710FDAD
:100D10000023436208BD436A1942F7D108BD00BFF2
:100D200070B504680546A0420E4609D0E3686068C5
:100D30003343E360A168FFF7DBFF2468A542F5D1E8
:100D400070BD00BF000000000000000000000000B7
:100D500010B4024679B140F23853C2F200039B69E5
:100D60000D205A62546883E81400536023605DF8D4
:100D7000044BFFF70DBD4FF0FF305DF8044B70479B
:100D800030B4029C00250A44856004620261406020
:100D9000006041618161C160C36130BC704700BFC8
:100DA00003464269806910B582429C681BD0501C82
:100DB000013458619C60117059691A6991420BD2D3
:100DC000186898420DD002681A605360FFF7B0FCB3
:100DD00000234362184610BD1868DA6898425A61C9
:100DE000F1D1002010BD002CE1D06FF0030010BD48
:100DF00070B5202304460E4683F31188C3692BB1D6
:100E0000984703E0FFF7A4FF002815DBA5682046FC
:100E10003146002DF6D0A2692169531C8B42A36193
:100E200005F1FF3528BFE368A560107828BFA361EE
:100E3000002383F3118870BD2B4683F3118870BDA6
:100E40002DE9F0471E460446D0F81C80202383F38A
:100E500011884FF0000901EB020A4F1CB8F1000F96
:100E600005D02046C04702E0FFF772FFF0B9A56841
:100E700020463146002DF7D0A369013D5A1CA261DE
:100E8000A5601B7807F8013C2369A2699A4224BF38
:100E9000E368A361002383F31188574509F1010931
:100EA00007D0202383F311880137D7E72B4683F33C
:100EB00011884846BDE8F0870000000000000000EF
:100EC00030B4029C8D18056104624060006082604D
:100ED00041618161C160C36130BC704700000000A6
:100EE000F8B504460F461646202383F3118803E025
:100EF000FFF72EFF002819DBA56820463146002D9C
:100F0000F6D06369013D5A1C6261A5601F702369B8
:100F100062699A4224BFE3686361E3690BB12046CA
:100F20009847002383F311880020F8BD2B4683F3F4
:100F30001188F8BD00000000000000000000000063
:100F40008269416910B591420346846816D01869D8
:100F50000134511C9C609961814214780BD218684D
:100F6000984206D002681A605360FFF7E1FB002345
:100F70004362204610BDDA689A61F0E7002CE6D0A3
:100F80006FF0020010BD00BF000000000000000074
:100F90002DE9F84F9A4604460E461746D0F81C90A5
:100FA000202383F311884FF00008A56806F1010B98
:100FB00020466B1EDDB16269A360531C6361337808
:100FC0001370236962699A4224BFE3686361B9F1CF
:100FD000000F00D0C847002383F31188013F08F1B8
:100FE00001080DD0202383F311885E46DDE72046FB
:100FF0005146FFF7ADFE0028D7D02B4683F311886A
:101000004046BDE8F88F00BF00000000000000006F
:1010100041F200010848C2F2000140F2545240F28D
:10102000585321F00701C2F2000220F00700C2F27B
:1010300000031160186070474F0800200000000096
:10104000202383F3118840F2585340F25452C2F2E5
:101050000003C2F2000219681268073020F007008E
:10106000521A90429BBF4018186000200846002387
:1010700083F31188704700BF0000000000000000EB
:1010800040F26053C2F2000341F241020021C0F677
:10109000000203F110001A609960D960FFF770BD7B
:1010A000F8B540F26056C2F20006002818BF0646A6
:1010B000073106F1100021F0070506F10804FFF7DB
:1010C000CFFD03E05A68954211D91C462368002BD6
:1010D000F8D1FFF7D5FD33681BB305F10800984739
:1010E000F8B10660456000F108042046F8BD05F13E
:1010F0000801914208D91A6822601C4644F8086B1E
:10110000FFF7BEFD2046F8BD4FF6F870CFF6FF7032
:101110001F68401B10445A185F50506022605D6089
:10112000EBE70024E1E700BF000000000000000042
:1011300070B5064650F8080CA6F1080400F1080541
:101140001030FFF78DFD2B46AB4204D0A34202D3F3
:101150001B68AB42FAD11A681AB1944201D3134604
:10116000F2E756F8041C46F8082C1C6001F108024E
:1011700056F8085CA018A84209D05A6802F1080184
:1011800019448C4211D0BDE87040FFF779BD40682A
:10119000A2580144083146F8041C46F8082C5A6845
:1011A00002F1080119448C42EDD156F8040C56F8AE
:1011B000081C0244083283E80600BDE87040FFF7CF
:1011C0005FBD00BF00000000000000000000000044
:1011D000202383F31188026800230A60016083F3EF
:1011E00011887047000000000000000000000000AF
:1011F00008B500F005F900F0DBF842F2C010C0F6C7
:10120000000000F08DF900F04BF8BDE8084000F058
:10121000F7BA00BF0000000000000000000000005E
:101220000C30FFF70DBE00BF000000000000000002
:101230000C304FF0FF33FFF703BE00BF000000008B
:101240003030FFF7A5BE00BF000000000000000026
:1012500030304FF0FF33FFF79BBE00BF00000000AF
:101260000C30FFF7C5BD00BF00000000000000000B
:101270000C304FF0FF31FFF7BBBD00BF0000000096
:101280003030FFF72DBE00BF00000000000000005E
:1012900030304FF0FF32FFF723BE00BF00000000E8
:1012A00000F04EBA00000000000000000000000046
:1012B00070B542F27015C0F60005044682B040F8E1
:1012C000045B012600940B461546606004F154014E
:1012D00004F10C0026724022FFF752FD00942B46C9
:1012E00004F1300004F194014022FFF7E9FD02B05F
:1012F00070BD00BF00000000000000000000000002
:1013000010B52023044683F3118800F031FA02233C
:101310002372002383F3118810BD00BF000000007A
:1013200038B5436904460D463BB1294604F10C002B
:10133000FFF736FD00280BDB38BD04300421FFF732
:10134000EFFC294604F10C00FFF72AFD0028F3DA30
:10135000201D8021BDE83840FFF7E2BC00000000FE
:101360004FF48053CEF200035B688360704700BF88
:101370004FF48053CEF2000340F280525B688168E4
:10138000C2F2000210B414685B1AC2681B1B9342BD
:10139000836088BFC36003D80269934238BF03618A
:1013A0005DF8044B704700BF000000000000000023
:1013B00010B540F2805486B0C2F2000400224FF013
:1013C000FF314FF48053226004920591CEF2000366
:1013D000596841F2613241F27133C0F60002C0F641
:1013E000000301A8029303910192FFF7C1FF039B41
:1013F000236006B010BD00BF000000000000000028
:101400004FF48053F0B4C4F2020300214FF0FF34D4
:101410004EF210021869CEF200021C6145F6BF566A
:10142000196107254EF6F050DF68CEF20000DC604F
:10143000D960566091601560C2684FF4805142F0E7
:101440008072C260CEF2000108684FF4E04240F0C2
:1014500001000860D969C4F2000241F08051D961ED
:10146000D969F0BC41F00061D961136843F480731D
:101470001360704700000000000000000000000042
:101480004FF48053C4F202031A68194642F0010275
:101490001A600A684FF480539207C4F20203F8D529
:1014A0001968002201F0F901196019465A604A686A
:1014B0004FF4805312F00C0FC4F20203F7D11A68F4
:1014C000194642F480321A600A684FF48053900340
:1014D000C4F20203F8D55A68194642F4A0225A60B1
:1014E0001A6842F080721A600A684FF480539201C1
:1014F000C4F20203F8D54FF40052C4F202021021E4
:101500004FF4A0205860116059681A4641F002015A
:101510005960536803F00C03082BFAD1704700BFE1
:101520004FF48053C4F202039A6910B442F07D0272
:101530009A6103684FF40062C4F20102D3608168CB
:101540004FF4406351604168C4F201031160C26806
:101550004FF48051DA604269C4F201015A600469B3
:101560004FF4A0521C608369C4F20102CB60046A8C
:101570004FF4C0534C60C469C4F201030C60416A6B
:101580005DF8044BD160C16A5160816A1160026BE1
:10159000DA60826B5A60426B1A607047000000008C
:1015A000032AF0B408BF016102D0042A08BF4161D8
:1015B00042F29013C0F600039F5C00231C461A46BB
:1015C0001D46082611F0800F4FEA02124FEA03135E
:1015D0004FEA05154FEA04140CBF42F00F023B43DB
:1015E00011F4004F0CBF45F00F053C43013E4FEA9C
:1015F0004101E7D141680D402C4344600168F0BCD3
:101600000A40134303607047000000000000000020
:101610004FF46053C4F201039A8992B242F08002FF
:101620009A817047000000000000000000000000E8
:1016300040F28453C2F2000370B5D3F8D450AE899F
:101640002C88B6B2A4B2E00547D4202383F31188D6
:10165000A10624D50BE0A98840F28450C2F2000014
:10166000C9B2FFF75DFE2C88A4B2A00617D52207E9
:10167000F1D014F0080F14BF8021002114F0010FE5
:1016800018BF41F02001A30748BF41F040016407A3
:10169000264848BF41F48071FFF742FBDBE7002397
:1016A00083F31188310601D5220625D4630610D5AF
:1016B000202383F311881D481021FFF731FB0023FD
:1016C00083F311884FF63F7333404FF6BF72AB81FF
:1016D0002A80BDE87040FEF77BBE202383F311888B
:1016E00012484FF40071FFF71BFB002383F31188AE
:1016F0004FF6FF632B80A8E7202383F311880C4863
:10170000FFF71EFC0028A4BF80B2A88003DB0023E3
:1017100083F31188CAE705480821FFF701FB26F08B
:10172000C00343F04003AB81F1E700BF8805002010
:10173000B4050020000000000000000000000000D0
:1017400010B540F28454C2F2000441F21162204606
:10175000C0F600020021FFF7ABFD4FF46053C4F266
:101760000103C4F8D43010BD0000000000000000E8
:1017700038B542F2B014037AC0F60004002918BF4D
:101780000C46012B054620D021684FF45852C0F278
:101790006E12D5F8D430B2FBF1F292B21A81A2885F
:1017A000E188208942F4045241F0400442F02C02C6
:1017B00040F0010092B2A4B280B200211C82988253
:1017C0009A8119801A889B8838BD40F28453C2F2EE
:1017D00000039842D8D14FF48053C4F202039A69AF
:1017E000252042F480429A61C021FEF751FECBE7EA
:1017F000FFF746BE000000000000000000000000EF
:101800000023C4F201035A6842F080625A607047B4
:10181000F0B400F1100700F10F050C46B1FBF2F631
:1018200002FB161101F13003392BC8BF01F1370358
:10183000DBB2B4FBF2F431462E4605F80139002C38
:10184000ECD1B91B3246014401E012F8013F00F827
:10185000013B8842F9D1F0BC704700BF0000000096
:101860002DE9F04F8BB00DF115030DF1140A42F282
:1018700000280193C0F60008CAEB030383460C4618
:1018800016460293CDF80C802178631C59B12529A6
:101890000CD0DBF800201C4692685846904721780F
:1018A000631C0029F3D10BB0BDE8F08F62780025EE
:1018B0002D2A03BFA278A31C4FF0010C4FF0000C9F
:1018C0002E2A18BF302A03BF5A7801333027202729
:1018D0001C4606E03378043605EB8505227803EBD9
:1018E0004505A2F13003DBB2092B04F10104F3D961
:1018F0002A2AEFD02E2A4FF000012FD002F0DF036A
:101900004C2B3AD12378012013B101341A4601201F
:10191000A2F14403342B00F2B480DFE803F077B285
:10192000B2B2B277B2B2B2B2B275B2B2B2B2B2368B
:10193000B2B2B0B2B2B2B2B2B2B2B2B2B2A677B2D0
:10194000B2B2B277B2B2B2B2B275B2B2B286B23697
:10195000B2B2B0003378043603EB400114F8012B27
:1019600001EB8100A2F13003DBB2092BF4D92A2A62
:10197000F0D002F0DF034C2BC4D0A2F14100C0B282
:1019800019288CBF00200120C2E70A223168504686
:101990000436CDF800C0FFF73BFFDDF800C0CAEB0E
:1019A000000000F1FF39D0462D1A25EAE575BCF19B
:1019B000000F0DD16D425DB198F800102D2967D050
:1019C000DBF8003058469B68394698470135F7D117
:1019D000B9F1000FA4BFC14408F1FF3808DBDBF800
:1019E000003018F8011F9B6858469847C845F6D143
:1019F000002D3FF449AFDBF8003058469B6839466C
:101A00009847013DF7D13FE70822BFE731680A2236
:101A10000029B8BF2D2306F10406BDBF8DF8143090
:101A200049420DF115005046B3E7D6F80080039AFD
:101A300047F6FF73B8F1000F08BF904698F8000012
:101A40000436002908BF1946002833D041444346D4
:101A500001E08B4228D05A780133002AF9D1C8EB33
:101A6000030000F1FF3920279EE7336802988DF8C4
:101A70001430043600F1FF392027D04694E71022B5
:101A800084E702988DF8142000F1FF39D0468BE7E7
:101A9000302F95D1DBF8003058469B68984708F105
:101AA000010809F1FF398BE7C8EB010000F1FF39AC
:101AB000202779E74FF0FF39202775E70000000065
:101AC0000EB400B582B003AB53F8041B1A46019361
:101AD000FFF7C6FE02B05DF804EB03B0704700BF2D
:101AE000002909DD42F2102142F21C22C0F6000159
:101AF000C0F60002FFF7E4BF40F22853C2F2000331
:101B000042F22421DA68C0F60001FFF7D9BF00BF16
:101B100030B5002983B004460CDD42F2102142F2B8
:101B20002C22C0F60001C0F6000203B0BDE8304030
:101B3000FFF7C6BF42F2342142F24822C0F600014C
:101B4000C0F60002FFF7BCFF42F2502142F26422CD
:101B50002046C0F60001C0F60002FFF7B1FF42F2D6
:101B6000702142F284222046C0F60001C0F6000235
:101B7000FFF7A6FF42F28C2142F2A0222046C0F6D7
:101B80000001C0F60002FFF79BFF42F2AC2142F2D7
:101B9000C0222046C0F60001C0F60002FFF790FF09
:101BA00042F2D82142F2EC222046C0F60001C0F6F3
:101BB0000002FFF785FF42F2183142F22C32204634
:101BC000C0F60001C0F6000242F26035FFF778FF70
:101BD000C0F6000542F2383142F2503242F25C3334
:101BE00020460095C0F60001C0F60002C0F60003D2
:101BF000FFF766FF03B030BD0000000000000000EA
:101C000038B504460D46C0B1286042F26C31C0F6CA
:101C10000001204600F074FA42F26C310444204680
:101C2000C0F6000100F044FA60B1421C00232A60B3
:101C30000370237823B1204638BD0C68002CE4D112
:101C4000002038BD2860F4E700000000000000001C
:101C500040F25C63C2F200031B60704700000000AA
:101C600010B52023044683F3118840F25C60C2F271
:101C700000000021FFF754F82046BDE81040FEF7B1
:101C800007BF00BF000000000000000000000000CF
:101C900000B541F6515383B00090C0F60003002018
:101CA000FEF74EFF03B05DF804FB00BF000000002C
:101CB000F0B5013A83B00E468F1804460D462368EE
:101CC00020465B680DF107010122984740B39DF85B
:101CD0000710042927D008290FD00D292DD01F293E
:101CE000EDD9BD42EBD2236820469B6898479DF80A
:101CF0000730013505F8013CE1E7B542DFD0236844
:101D000020469B689847236820469B682021984777
:101D1000236820469B689DF80710013D9847CEE751
:101D2000012003B0F0BD42F270312046C0F6000140
:101D3000FFF7C6FE012003B0F0BD42F22831204675
:101D4000C0F60001FFF7BCFE0020287003B0F0BD14
:101D50002DE9F04340F23853C2F200039A69066855
:101D600042F27433C0F6000342F27C31D0F80490A2
:101D70009BB030469361C0F60001FFF7A1FE40F230
:101D80000048C2F2000842F29431C0F60001304629
:101D9000FFF796FE30460AA94022FFF789FF044666
:101DA00000284BD169460AA8FFF72AFF6D4607466F
:101DB00002E0013445F8040F00206946FFF720FFD8
:101DC00058B1082CF5D142F2AC31C0F600013046D2
:101DD000FFF776FE00230993D5E71AAA02EB8403E6
:101DE00043F8640C002FCED042F2C431C0F600019B
:101DF000384600F035F960B93CB342F2102142F2A6
:101E0000C432C0F60001C0F600023046FFF758FEAB
:101E1000B9E742F2CC31C0F60001384600F020F9B3
:101E2000D0B984B342F2102142F2CC32C0F60001A4
:101E3000C0F600023046FFF743FEA4E742F2A031AD
:101E40003046C0F60001FFF73BFE0020FFF708FF19
:101E500000201BB0BDE8F083D8F8000040F2004538
:101E6000C2F2000520B941E055F8080F00283DD026
:101E7000394600F0F5F80028F6D16B682146304667
:101E800001AA98477FE742F2D431C0F600013046FC
:101E9000FFF716FED8F8002040F20044C2F200041A
:101EA00052B142F2EC31C0F600013046FFF708FEB5
:101EB00054F8082F002AF4D1B9F1000F0ED0D9F848
:101EC00000205AB14C4642F2EC31C0F600013046D7
:101ED000FFF7F6FD54F8082F002AF4D142F228311A
:101EE000C0F600013046FFF7EBFD4CE7B9F1000FFB
:101EF0000DD0D9F8000050B14D4602E055F8080F5A
:101F000028B1394600F0ACF80028F7D1B5E742F225
:101F1000F03130463A46C0F60001FFF7D1FD42F2FB
:101F2000F4313046C0F60001FFF7CAFD2BE700BFD1
:101F300008B540F23853C2F200039A6942F23043C6
:101F4000C0F600034FF400644FF480759361C4F24F
:101F500001042E4666614FF4FA70FEF789FD256193
:101F60004FF4FA70FEF784FDF4E700BF00000000B4
:101F7000F8B540F23853C2F200039A6942F2304396
:101F8000C0F6000340F2194440F2184540F2606682
:101F90004FF480579361C2F20004C2F20005C2F20E
:101FA0000006C4F201074FF4FA70FEF761FD2378D2
:101FB0002A78D90841EA4303DBB2012A237001BF22
:101FC000DB43DBB23370FB60EDE700BF00000000D5
:101FD0000EB400B582B003AB53F8041B1A4601934C
:101FE000FFF73EFC02B05DF804EB03B0704700BFA2
:101FF000002905DD42F23841C0F60001FFF7E8BFD5
:1020000042F24841C0F60001FFF7E2BF00000000C5
:102010000029024619DC40F21843C2F20003197885
:1020200051B1012904BF0021197042F264411046E8
:10203000C0F60001FFF7CCBF0121197042F26441E4
:102040001046C0F60001FFF7C3BF42F25441C0F68C
:102050000001FFF7BDBF00BF00000000000000004E
:1020600040F21C43C2F2000330B41C68054602E093
:10207000D01A16D1ABB115F8013BE21850781A46C8
:1020800000F00300012808BF03F1200211F8013B12
:10209000E018407800F003000128E9D12033D01A7D
:1020A000E9D030BC704700BF000000000000000015
:1020B000F0B404780CB30E780746C6B1A64210D02F
:1020C0004B1C01E094420BD01D4613F8012B002A53
:1020D000F8D144780130002CEED12E78074600E08C
:1020E0002646002E14BF38460020F0BC70474478C6
:1020F0000D460130002CDFD1EFE72046F0BC7047E1
:10210000F0B40478CCB10E7807469EB10546B442CF
:102110000AD00A4601E09C4206D012F8013F002B8B
:10212000F9D1281AF0BC70476C787D1C002CF8D0CF
:102130002F46ECE73046F0BC70472046F2E700BF80
:1021400069646C65000000000000000000000000F1
:102150006D61696E00168211040448080C10141891
:10216000001C1D1E1F2000000000000000000000D9
:102170005112000831120008911200087112000873
:1021800081120008611200084112000821120008A3
:1021900004020408080003070808080808080808DB
:1021A0000B0F000000000000000000000000000015
:1021B0000096000000000040000000000000000049
:1021C000FFFFFFFF8888888888888888FFFFFFFFD7
:1021D0008888888888888888FFFFFFFF88888888A3
:1021E00088888888FFFFFFFF888888888888888893
:1021F000FFFFFFFF888888888888888800000000A3
:10220000286E756C6C2900000000000000000000C2
:1022100055736167653A2025730D0A0073797374ED
:10222000696D6500256C750D0A000000696E666FAA
:10223000000000004B65726E656C3A202020202063
:10224000202025730D0A0000322E362E32000000A9
:10225000436F6D70696C65723A20202020202573D1
:102260000D0A000047434320342E382E3200000070
:102270004172636869746563747572653A20257389
:102280000D0A000041524D76372D4D00436F7265A7
:102290002056617269616E743A2025730D0A000040
:1022A000436F727465782D4D33000000506F727467
:1022B00020496E666F3A2020202025730D0A000009
:1022C000416476616E636564206B65726E656C2037
:1022D0006D6F646500000000506C6174666F726D14
:1022E0003A202020202025730D0A000053544D333E
:1022F000324631307820506572666F726D616E6360
:1023000065204C696E65204D656469756D20446576
:102310006E73697479000000426F6172643A202024
:1023200020202020202025730D0A000053544D3317
:10233000325F5446000000004275696C6420746985
:102340006D653A2020202573257325730D0A000042
:102350004D6172203130203230313500202D200087
:1023600031383A32323A343400000000200900009B
:102370005E4400007368656C6C0000000D0A4368E1
:102380006962694F532F5254205368656C6C0D0A73
:102390000000000073746D33325F54463E2000002D
:1023A0000D0A6C6F676F757400000000746F6F200A
:1023B0006D616E7920617267756D656E74730D0A5B
:1023C00000000000657869740000000068656C70AA
:1023D00000000000436F6D6D616E64733A206865A4
:1023E0006C7020657869742000000000257320005F
:1023F00025730000203F0D0A0000000000000000CF
:1024000074240008F11F00087C2400081120000833
:1024100000000000000000000000000000000000BC
:1024200084050020002400080000000000000000D7
:10243000626C696E6B65720055736167653A2074F2
:102440006573740D0A00000073657269616C206F1A
:102450006B210A0055736167653A206C65640D0A4B
:10246000000000006C656420746F67676C65640D24
:102470000A00000074657374000000006C6564005D
:102480000020202020202020202028282828282044
:10249000202020202020202020202020202020203C
:1024A00020881010101010101010101010101010A4
:1024B0001004040404040404040404101010101094
:1024C000101041414141414101010101010101015E
:1024D00001010101010101010101010110101010B0
:1024E0001010424242424242020202020202020230
:1024F0000202020202020202020202021010101084
:1025000020000000000000000000000000000000AB
:1025100000000000000000000000000000000000BB
:1025200000000000000000000000000000000000AB
:10253000000000000000000000000000000000009B
:10254000000000000000000000000000000000008B
:10255000000000000000000000000000000000007B
:10256000000000000000000000000000000000006B
:10257000000000000000000000000000000000005B
:042580000000000057
:102588002C220008111B00081C220008E11A000870
:102598000000000000000000010100008024000885
:0400000508000211DC
:00000001FF
